S014000041746D65676133325F6C61622E73726563CE
S11300000C942A000C9462000C947E000C949A00C8
S11300100C9434000C9434000C9434000C9434008C
S11300200C9434000C9434000C9434000C9434007C
S11300300C9434000C9434000C9434000C9434006C
S11300400C9434000C9434000C9434000C9434005C
S11300500C94340011241FBECFE5D8E0DEBFCDBF21
S11300600E9436000C94B6000C94000085B78160A1
S113007085BF85B78D7F85BF85B7846085BF85B70C
S1130080886085BF84B7806484BF8BB780628BBF70
S11300908BB780648BBF8BB780688BBF81B3806262
S11300A081BB81B3806481BB81B3806881BB789458
S11300B082B38F7D82BB82B38F7B82BB82B38F7707
S11300C082BBF6CF1F920F920FB60F9211242F937B
S11300D08F939F9382B3806282BB2FEF8DE399E469
S11300E0215080409040E1F700C000009F918F9123
S11300F02F910F900FBE0F901F9018951F920F9283
S11301000FB60F9211242F938F939F9382B3806421
S113011082BB2FEF8DE399E4215080409040E1F7BA
S113012000C000009F918F912F910F900FBE0F90F0
S11301301F9018951F920F920FB60F9211242F93B0
S11301408F939F9382B3806882BB2FEF8DE399E4F2
S1130150215080409040E1F700C000009F918F91B2
S11301602F910F900FBE0F901F901895F894FFCF0A
S9030000FC
